:020000040800F2
:10000000880600203102000859090008130600087C
:100010005509000819050008D51000080000000067
:10002000000000000000000000000000CD0D0008EE
:100030001D05000800000000A10C0008F50E0008D6
:100040004B0200084B0200084B0200084B0200085C
:100050004B0200084B0200084B0200084B0200084C
:100060004B0200084B0200084B0200084B0200083C
:100070004B0200084B0200084B0200084B0200082C
:100080004B0200084B0200084B0200084B0200081C
:100090004B0200084B0200084B0200084B0200080C
:1000A0004B0200084B0200084B0200084B020008FC
:1000B0004B020008650F00084B0200084B020008C5
:1000C0004B0200084B0200084B0200084B020008DC
:1000D0004B0200084B0200084B0200084B020008CC
:1000E0004B0200084B0200084B0200084B020008BC
:1000F0004B0200084B0200084B0200084B020008AC
:100100004B0200084B0200084B0200084B0200089B
:100110004B0200084B0200084B0200084B0200088B
:100120004B0200084B0200084B0200084B0200087B
:100130004B0200084B0200084B0200084B0200086B
:100140004B0200084B0200084B0200084B0200085B
:100150004B0200084B0200084B0200084B0200084B
:100160004B0200084B0200084B0200084B0200083B
:100170004B0200084B0200084B0200084B0200082B
:100180004B0200084B02000800F002F800F040F8B3
:100190000AA090E8000C82448344AAF10107DA45E2
:1001A00001D100F035F8AFF2090EBAE80F0013F0F4
:1001B000010F18BFFB1A43F0010318478019000014
:1001C000A0190000103A24BF78C878C1FAD85207A5
:1001D00024BF30C830C144BF04680C6070470000C1
:1001E0000023002400250026103A28BF78C1FBD840
:1001F000520728BF30C148BF0B6070471FB501F0E0
:100200009FF99DE8030000F081F81FBD10B510BDF7
:1002100000F000F91146FFF7F1FF01F0F1F800F0EE
:100220001EF903B4FFF7F2FF03BC00F04FF9000022
:100230000948804709480047FEE7FEE7FEE7FEE77A
:10024000FEE7FEE7FEE7FEE7FEE7FEE704480549B6
:10025000054A064B70470000FD0E000889010008A2
:1002600088000020880600208802002088020020E4
:1002700070B5064600F02EF8056806F10B0020F078
:100280000704B4429CBF002070BD2B466A68BAB117
:100290001068A04210D304F1080188423CBF5068A6
:1002A000586007D35168101941601168091B01603B
:1002B00058601460101D70BD13465268002AE7D1C3
:1002C0002146284600F00EF80028DED170BD7047A8
:1002D00070477047004870473000002070477047F3
:1002E0007047704738B504460A4600206946AFF3A8
:1002F0000080002808BF38BD02460099204600F063
:1003000067F8012038BD012000F07CB8F8B5AFF3E4
:100310000080054600200C46102000BF0646A819A4
:10032000A0420DD9324669460020AFF30080070095
:1003300008BF00F067F80098A04218BF0546C4192E
:10034000FFF7C8FF05600746F01D20F007004619BB
:10035000284600F00AF8B44208BFF8BDA21B314697
:100360003868BDE8F84000F033B800210160C0E90A
:10037000011070471020704770B50446051FFFF745
:10038000A9FF0068002C14BF446870BD002C18BF82
:10039000AC423CBF20466468F8D301680A18AA4200
:1003A00018BF456003D12A680546114401602868DA
:1003B0004119A1421CBF6C6070BD61686960216811
:1003C0000844286070BD00000048704728000020E5
:1003D000034640688C46002818BF88423CBF03464D
:1003E0004068F8D318681844884207D00CF103001D
:1003F00020F00700001D411A521A0146081D0A602C
:10040000FFF7BABF10B500F039F8BDE8104000F0B2
:100410002FB870477546FFF7D7FFAE46050069460F
:10042000534620F00700854618B020B5FFF70EFFB1
:10043000BDE820404FF000064FF000074FF00008E5
:100440004FF0000B21F00701AC46ACE8C009ACE866
:10045000C009ACE8C009ACE8C0098D46704710B5CA
:100460000446AFF300802046BDE81040FFF7D9BE38
:10047000002801D000F02AB87047000010B501280C
:1004800005D0002103A000F027F8012010BD09A12C
:10049000F8E7000053494752544D454D3A204F75F7
:1004A00074206F662068656170206D656D6F72796C
:1004B000000000003A2048656170206D656D6F7224
:1004C0007920636F72727570746564000149182039
:1004D000ABBEFEE72600020070B505460C460A20BA
:1004E00000E06D1C00F011F835B128780028F8D133
:1004F00002E0641C00F009F814B120780028F8D15B
:10050000BDE870400A20AFF3008008B569468DF859
:1005100000000320ABBE08BD00BFFEE77047F0B58A
:100520000A4600210023002400BF3DE0012505FA12
:1005300001F3156805EA03049C4234D105684F00B5
:100540000326BE40B543056015794E00B5400668E8
:10055000354305601579012D02D01579022D16D18C
:1005600085684F000326BE40B543856055794E002F
:10057000B540866835438560456801268E40B543A1
:100580004560456896798E40B6B235434560C5688A
:100590004F000326BE40B543C560D5794E00B54037
:1005A000C6683543C560491C1029BFD3F0BDF0B5FE
:1005B000002300244D07ED0E02FA05F3CE1000F1E2
:1005C000200555F826504E07F70E0F26BE40B543BE
:1005D000CF1000F1200646F82750CE1000F120057C
:1005E00055F8265045EA0304CE1000F1200545F8E1
:1005F0002640F0BD0246002013690B400BB10120DC
:1006000000E0002070470AB1816101E00B048361C2
:10061000704700BFFEE7000000B587B0012102204F
:1006200000F040FB0121480500F04CFBC020059084
:1006300002208DF818008DF8190001208DF81A009D
:1006400000208DF81B0005A91448FFF768FF04225D
:1006500006211248FFF7ABFF042207210F48FFF7DE
:10066000A6FF0020ADF808004BF6FF70ADF80A00B9
:100670000020ADF80C004FF48060ADF80E000001D2
:10068000ADF810000648019001A9064800F038F8BE
:100690000121044800F027F807B000BD0004024023
:1006A000A08601000054004010B504460022114607
:1006B00020466368984700220121204663689847D6
:1006C00001220021204663689847032000F0FCFEC9
:1006D00000221146204663689847012211462046B1
:1006E0006368984710BD21B1028842F00102028080
:1006F00004E002884FF6FE731A4002807047000043
:100700002DE9FF4704460D460026B1460427DFF8D1
:10071000CC80A6884FF6C0700640684600F0E2FA2A
:10072000DDF808802E48B8FBF0F01FFA80F946EAA1
:100730000906A68020884FF6FE710840208000261A
:100740002849286888420CD828684000B8FBF0F097
:1007500087B2042F00DA04273E4309F10100208408
:1007600027E0E8884BF6FF71884206D1286800EB45
:100770004000B8FBF0F087B209E0286800EBC00148
:1007800001EB0010B8FBF0F087B247F48047C7F3E5
:100790000B0008B947F0010747F4004006434FF447
:1007A000967009FB00F04FF47A7190FBF1F0401C59
:1007B0002084A683208840F00100208026884FF600
:1007C000F5300640A8886989084306432680A88931
:1007D000298908432081BDE8FF87000000127A00C4
:1007E00040420F00A086010010B5044600221146C9
:1007F000204663689847012211462046636898475F
:1008000001220021204663689847032000F05CFE27
:10081000002211462046636898470122114620466F
:100820006368984710BD2DE9F0410446002607256E
:100830001AE00022114620466368984701220021F1
:1008400020466368984720698047074607F0010003
:10085000002803DD0120A840304303E00121A94026
:1008600026EA0100C6B26D1E002DE2DA3046BDE870
:10087000F0812DE9F04104460E46072513E046FAC3
:1008800005F000F001073A460121204663689847C9
:100890000122002120466368984700221146204625
:1008A000636898476D1E002DE9DABDE8F08110B548
:1008B0000446012200212046636898470122114620
:1008C00020466368984700220121204663689847C4
:1008D0000022114620466368984710BD10B50446B3
:1008E000002201212046636898470122002120460A
:1008F00063689847012211462046636898470022A2
:10090000114620466368984710BD70B5044600251F
:1009100001221146204663689847012200212046A3
:10092000636898470BE0681CC5B2002000F0CCFD5E
:10093000C82D04DD2046FFF7D1FF012070BD2069DE
:1009400080470028EFD1002211462046636898476F
:100950000020F3E700BFFEE77047000070B50021FC
:1009600000230F22C4781CB3174C246804F4E064FD
:10097000C4F5E064C4F30721C1F10404E3B20A4101
:1009800044789C40E1B28478144021430C07210E46
:100990000E4C05786155047804F01F050124AC4025
:1009A00005786D11AD0005F1E025C5F8004109E0BD
:1009B000047804F01F050124AC40054D067876113B
:1009C00045F8264070BD00000CED00E000E400E0BA
:1009D00080E100E070B500240EE00021204600F028
:1009E000B5F8002504E0002000F038F9681CC5B215
:1009F000802DF8DB601CC4B2082CEEDB70BD00005B
:100A00001CB50121022000F04DF9C020009001200A
:100A10008DF8040003208DF8050000208DF80600F5
:100A20008DF8070069460948FFF779FD00F054FB8F
:100A30000749086007480968886007480449096849
:100A4000C86006480249096808611CBD00040240EC
:100A5000200000208D0C0008790C00083D0B0008D8
:100A600070B5002406E0002500E06D1CB5F57A7F26
:100A7000FBD3641CB4F57A7FF5D3FFF7C1FFAE203A
:100A800000F0DEF8D52000F0DBF8802000F0D8F888
:100A9000A82000F0D5F83F2000F0D2F8D32000F0D5
:100AA000CFF8002000F0CCF8402000F0C9F8A120D9
:100AB00000F0C6F8C82000F0C3F8DA2000F0C0F853
:100AC000122000F0BDF8812000F0BAF8CF2000F02D
:100AD000B7F8D92000F0B4F8F12000F0B1F8DB202D
:100AE00000F0AEF8302000F0ABF8A42000F0A8F839
:100AF000A62000F0A5F88D2000F0A2F8142000F048
:100B00009FF8AF2000F09CF8FFF764FF70BD70B550
:100B100005460C460CB9012070BD04F0010028B157
:100B2000611E2846FFF7F3FF6843F5E76108284692
:100B3000FFF7EDFF064606FB06F0EDE710B5802156
:100B40000148FFF757FD10BD0004024070B505468F
:100B50000C4645F0B00000F073F8102141EA141083
:100B600000F06EF804F00F0000F06AF870BD0000AD
:100B70002DE9F04105460E461746721ED206110EAB
:100B80006A1E5206100EFFF7E1FF002409E0A7F1EC
:100B90002001134A02EB0111085D00F05FF8601CB0
:100BA000C4B2082CF3DB721ED206110E6A1E01239A
:100BB00003EB4202D0B2FFF7C9FF00240BE0A7F11C
:100BC0002001074A02EB011204F10801505C00F019
:100BD00045F8601CC4B2082CF1DBBDE8F0810000D0
:100BE0004A1500082DE9F0478146884615461E46FD
:100BF000002D01DB2F4605E02D2241464846FFF738
:100C0000B7FF6F42002417E0301B411E0A20FFF798
:100C10007EFFB7FBF0F00A21B0FBF1F201FB1200FE
:100C200000F1300A08EB0400401CC1B252464846AD
:100C3000FFF79EFF601CC4B2B442E5DBBDE8F0875D
:100C400070B50446044800682346002278214569AF
:100C500001480068A84770BD2000002070B5044618
:100C6000044800682346402278214569014800680D
:100C7000A84770BD2000002010B504462246402140
:100C80000148FFF7C0FC10BD0004024010B5044647
:100C9000224680210148FFF7B6FC10BD0004024047
:100CA0007047000029B1064A12680243044B1A60DB
:100CB00004E0034A12688243014B1A607047000047
:100CC0003038024029B1064A12680243044B1A60C8
:100CD00004E0034A12688243014B1A607047000027
:100CE00040380240F0B500210022002402250026F1
:100CF0000223324F3F6807F00C0121B1042905D0CF
:100D0000082937D105E02E4F076036E02D4F0760E8
:100D100033E02A4F3F1F3F68C7F38056274F3F1FDE
:100D20003F6807F03F036EB1264FB7FBF3F7DFF8DC
:100D30008CC0ACF1040CDCF800C0CCF3881C07FBC1
:100D40000CF40CE01E4FB7FBF3F7DFF870C0ACF10A
:100D5000040CDCF800C0CCF3881C07FB0CF4174F24
:100D60003F1F3F68C7F301477F1C7D00B4FBF5F7C9
:100D7000076002E0124F076000BF00BF0F4F3F68DF
:100D800007F0F0010909104F7A5C0768D740476007
:100D90000A4F3F6807F4E051890A0B4F7A5C4768B5
:100DA000D7408760054F3F6807F46041490B064F05
:100DB0007A5C4768D740C760F0BD00000838024041
:100DC0000024F400001BB700000000207047000062
:100DD00002480068401C0149086070472400002058
:100DE0000CB50020019000903448006840F4803039
:100DF0003249086000BF3148006800F400300090BC
:100E00000198401C0190009818B90198B0F5A04FC6
:100E1000F1D12A48006800F4003010B101200090A0
:100E200001E0002000900098012846D1234840307E
:100E3000006840F080502149403108602048006837
:100E400040F440401E4908601C48083000681B49B7
:100E5000083108600846006840F400400860084611
:100E6000006840F4A05008601648091F0860081F79
:100E7000006840F08070091F086000BF0F480068DC
:100E800000F000700028F9D040F205700E490860AB
:100E90000A480830006820F003000849083108605B
:100EA0000846006840F00200086000BF03480830B0
:100EB000006800F00C000828F8D10CBD0038024092
:100EC000007000400C544007003C0240042808D148
:100ED0004FF0E021096941F004014FF0E022116177
:100EE00007E04FF0E021096921F004014FF0E02212
:100EF0001161704700B500F0E1F800BD10B515486C
:100F0000006840F47000134908601348006840F01E
:100F100001001149086000200F49083108600E489F
:100F200000680E4908400C4908600D48091D08601A
:100F3000081F006820F48020091F0860002006496F
:100F40000C310860FFF74CFF4FF000600149803919
:100F5000086010BD88ED00E000380240FFFFF6FE9B
:100F60001030002410B50121054800F04AF801288E
:100F700001D1FFF72DFF0121014800F033F810BD2A
:100F8000000400407FB505460C4601210220FFF712
:100F900099FE681E0290601E80B2ADF80400002029
:100FA000ADF80600ADF80C0001A90D4800F044F8BA
:100FB0001D208DF8000000208DF801008DF8020042
:100FC00001208DF803006846FFF7C8FC0122114696
:100FD000034800F027F80121014800F006F87FBD22
:100FE00000040040CA430282704721B1028842F0E7
:100FF0000102028004E002884FF6FE731A4002806C
:10100000704730B50246002000230024158A05EA07
:101010000103958905EA010413B10CB1012000E038
:10102000002030BD1AB183890B43838102E083899C
:101030008B4383817047000000220288184B98423E
:101040000ED0184B98420BD0B0F1804F08D0164B01
:10105000984205D0154B984202D0154B984204D1C6
:101060004FF68F731A404B881A43124B984207D0A1
:10107000114B984204D04FF6FF431A400B891A4394
:1010800002804B68C3620B880385054B984202D0EF
:10109000044B984201D18B7A0386012383827047E7
:1010A000000001400004014000040040000800402E
:1010B000000C00400010004000140040044800688C
:1010C00020B103480068401E0149086070470000D5
:1010D0001800002000BFFEE710B500242420FFF711
:1010E000C7F8044605486060054860610548A0618E
:1010F0000548E06105482062204610BD0115000842
:101100002F1300081D1200089113000899120008FF
:1011100010B504466FF00400FFF7D8FEE11704EBAA
:101120005171C1F3C701074A11701046007800EBF6
:101130004001C1EBC0104FF6FF7101EAC000024947
:10114000088010BD1C0000201E00002070B5044661
:101150004FF4077094FBF0F0C6B24FF4077094FBA5
:10116000F0F100FB114085B205E04FF4077000F08C
:101170002FF8701EC6B2002EF7D115B1284600F028
:1011800027F870BD0146114A12784A434FF0E02318
:101190005A6100229A611A46126942F001021A61EC
:1011A00000BF4FF0E022106900F001021AB100F414
:1011B0008032002AF5D04FF0E022126922F00102BD
:1011C0004FF0E0231A6100229A6170471C00002052
:1011D0000146114A12884A434FF0E0235A61002227
:1011E0009A611A46126942F001021A6100BF4FF07B
:1011F000E022106900F001021AB100F48032002AE6
:10120000F5D04FF0E022126922F001024FF0E02306
:101210001A6100229A6170471E0000202DE9F041FA
:1012200007460C4616461D46002028703846FFF734
:101230003EFB04F0FE013846FFF71BFB3846FFF784
:1012400064FB18B14FF0FF30BDE8F08131463846FD
:10125000FFF70FFB3846FFF758FB10B16FF00100A6
:10126000F2E73846FFF723FB44F001013846FFF769
:1012700000FB3846FFF749FB10B16FF00200E3E7CF
:101280003846FFF7D0FA28703846FFF7ADFA3846EF
:10129000FFF724FB0020D7E72DE9F04781460D46F4
:1012A00016461F46DDF820804846FFF700FB05F094
:1012B000FE014846FFF7DDFA4846FFF726FB18B166
:1012C0004FF0FF30BDE8F08731464846FFF7D1FACE
:1012D0004846FFF71AFB10B16FF00100F2E74846ED
:1012E000FFF7E5FA45F001014846FFF7C2FA484624
:1012F000FFF70BFB10B16FF00200E3E700240FE0F3
:101300004846FFF790FA3855A8F10100A04203D1F2
:101310004846FFF769FA02E04846FFF7C5F9641C42
:101320004445EDDB4846FFF7D9FA0020CAE72DE92E
:10133000F04107460C4615461E463846FFF7B7FAF9
:1013400004F0FE013846FFF794FA3846FFF7DDFA5D
:1013500018B14FF0FF30BDE8F08129463846FFF75D
:1013600088FA3846FFF7D1FA10B16FF00100F2E7C2
:1013700031463846FFF77DFA3846FFF7C6FA10B116
:101380006FF00200E7E73846FFF7A8FA0020E2E72F
:101390002DE9F04780460D4616461F46DDF82090A1
:1013A0004046FFF784FA05F0FE014046FFF761FA78
:1013B0004046FFF7AAFA18B14FF0FF30BDE8F087BA
:1013C00031464046FFF755FA4046FFF79EFA10B106
:1013D0006FF00100F2E700240BE0395D4046FFF7B3
:1013E00048FA4046FFF791FA10B16FF00200E5E7C6
:1013F000641C4C45F1DB4046FFF770FA0020DDE746
:10140000A820FFF785FEFFF707F9FFF729FBFFF795
:10141000E1FA42F2D00142F21070FFF7B3FD4CE066
:10142000264800683C2807DB00202449086024483F
:101430000068401C22490860214800683C2807DBFE
:1014400000201F4908601F480068401C1D490860B3
:101450001C480068182802DB00201A49086048224E
:1014600004210120FFF784FB4D2208210120FFF712
:101470007FFB53220C210120FFF77AFB0223114846
:10148000032102680846FFF7ADFB3A22062103203C
:10149000FFF76EFB02230A48072102680320FFF7CB
:1014A000A1FB3A220A210320FFF762FB0223034833
:1014B0000B2102680320FFF795FBB1E72400002011
:1014C000100000201400002010B5044634B1012C97
:1014D00006D0022C08D0032C0ED109E000BF0CE08E
:1014E0000A20FFF74FFE08E00120FFF72FFE04E07F
:1014F0000120FFF747FE00E000BF00BF012010BD44
:1015000070B504460E46154616B1012E14D109E0F9
:10151000002D03DD0120E168884702E00020E1683A
:1015200088470AE0002D03DD0120A168884702E01A
:101530000020A168884700E000BF00BF012070BD07
:101540004FF04070E1EE100A70470000000000000C
:1015500000000000000000000000000000F8000093
:101560000000000000333000000000100C06100CDA
:101570000600000000000000000040C07840C07875
:101580004000043F04043F040400007088FC08305D
:101590000000001820FF211E0000F008F000E018F5
:1015A000000000211C031E211E0000F008887000AE
:1015B00000001E2123241927211010160E00000000
:1015C00000000000000000000000000000E018041F
:1015D0000200000000071820400000020418E0008C
:1015E00000000040201807000000404080F08040CC
:1015F00040000202010F01020200000000F00000A2
:1016000000000101011F01010100000000000000B5
:10161000000080B07000000000000000000000002A
:1016200000000001010101010101000000000000B3
:10163000000000303000000000000000000080606A
:101640001804006018060100000000E010080810EF
:10165000E000000F102020100F00001010F8000014
:1016600000000020203F20200000007008080888AB
:10167000700000302824222130000030088888487B
:1016800030000018202020110E000000C02010F8AB
:10169000000000070424243F240000F8088888087C
:1016A00008000019212020110E0000E01088881881
:1016B0000000000F112020110E0000380808C83863
:1016C00008000000003F0000000000708808088843
:1016D0007000001C222121221C0000E010080810CC
:1016E000E0000000312222110F00000000C0C00005
:1016F000000000000030300000000000008000000A
:101700000000000080600000000000008040201009
:101710000800000102040810200040404040404002
:101720004000040404040404040000081020408065
:10173000000000201008040201000070480808089A
:10174000F0000000003036010000C030C828E8106A
:10175000E0000718272423140B000000C038E00025
:101760000000203C23020227382008F8888888706F
:101770000000203F202020110E00C030080808087B
:101780003800071820202010080008F80808081062
:10179000E000203F202020100F0008F88888E8088B
:1017A0001000203F20202320180008F88888E8082F
:1017B0001000203F200003000000C0300808083857
:1017C000000007182020221E020008F80800000868
:1017D000F808203F210101213F20000808F80808EF
:1017E00000000020203F2020000000000808F8082A
:1017F0000800C08080807F00000008F888C028189A
:101800000800203F20012638200008F808000000CA
:101810000000203F20202020300008F8F800F8F8D1
:101820000800203F003F003F200008F830C00008BB
:10183000F808203F200007183F00E01008080810B3
:10184000E0000F10202020100F0008F808080808FA
:10185000F000203F210101010000E01008080810FD
:10186000E0000F18242438504F0008F88888888832
:101870007000203F2000030C30200070880808080A
:1018800038000038202121221C00180808F8080818
:1018900018000000203F2000000008F808000008A1
:1018A000F808001F202020201F000878880000C8AA
:1018B0003808000007380E010000F80800F800089A
:1018C000F800033C0700073C0300081868808068A4
:1018D000180820302C03032C30200838C800C838E2
:1018E00008000000203F2000000010080808C83849
:1018F00008002038262120201800000000FE0202E7
:1019000002000000007F40404000000C30C000009A
:101910000000000000010638C00000020202FE00C4
:101920000000004040407F0000000000040202026E
:1019300004000000000000000000000000000000A3
:10194000000080808080808080800002020400008F
:101950000000000000000000000000008080808087
:1019600000000019242222223F2008F80080800075
:101970000000003F112020110E0000000080808038
:101980000000000E1120202011000000008080883F
:10199000F800000E112020103F2000008080808081
:1019A0000000001F222222221300008080F088887D
:1019B00088180020203F20200000000080808080C8
:1019C0008000006B94949493600008F800808080FD
:1019D0000000203F210000203F2000809898000058
:1019E00000000020203F2020000000000080989888
:1019F000000000C08080807F000008F80000808028
:101A00008000203F24022D302000000808F800004C
:101A100000000020203F2020000080808080808007
:101A20008000203F20003F20003F80800080808099
:101A30000000203F210000203F20000080808080A7
:101A40000000001F202020201F00808000808000D8
:101A5000000080FFA12020110E0000000080808087
:101A60008000000E112020A0FF80808080008080F8
:101A7000800020203F212000010000008080808025
:101A800080000033242424241900008080E080801A
:101A900000000000001F2020000080800000008067
:101AA0008000001F202020103F20808080000080C8
:101AB000808000010E3008060100808000800080D8
:101AC00080800F300C030C300F000080800080807D
:101AD00080000020312E0E312000808080000080A8
:101AE000808080818E701806010000808080808058
:101AF00080000021302C2221300000000000807C7A
:101B0000020200000000003F404000000000FF0013
:101B1000000000000000FF0000000002027C8000C6
:101B200000000040403F00000000000601010202EA
:101B30000404000000000000000000005C1B00081E
:101B40000000002028000000C4010008841B0008D9
:101B50002800002060060000E001000800000000EE
:101B60000102030401020304060708090000000043
:101B70000000000000000000000000000000000065
:041B80000000000061
:040000050800018965
:00000001FF
